:100000000C9462000C948A000C948A000C948A0070
:100010000C948A000C948A000C948A000C948A0038
:100020000C948A000C948A000C948A000C948A0028
:100030000C948A000C948A000C948A000C948A0018
:100040000C94F9020C948A000C94C7020C94A1023F
:100050000C948A000C948A000C948A000C948A00F8
:100060000C948A000C948A000000000024002700F1
:100070002A0000000000250028002B0000000000DE
:1000800023002600290004040404040404040202DA
:100090000202020203030303030301020408102007
:1000A0004080010204081020010204081020000012
:1000B0000008000201000003040700000000000027
:1000C0000000060511241FBECFEFD8E0DEBFCDBF74
:1000D00011E0A0E0B1E0E6E7FAE002C005900D9281
:1000E000A431B107D9F721E0A4E1B1E001C01D922C
:1000F000A73CB207E1F710E0C2E6D0E004C02197C8
:10010000FE010E943305C136D107C9F70E9443039F
:100110000C9439050C940000AF92BF92CF92DF92FD
:10012000EF92FF920F931F93CF93DF936C017B01AC
:100130008B01040F151FEB015E01AE18BF08C0173D
:10014000D10759F06991D601ED91FC910190F081B0
:10015000E02DC6010995892B79F7C501DF91CF9173
:100160001F910F91FF90EF90DF90CF90BF90AF90D5
:100170000895FC01538D448D252F30E0842F90E0AD
:10018000821B930B541710F0CF9608950197089592
:10019000FC01918D828D981761F0A28DAE0FBF2F5B
:1001A000B11D5D968C91928D9F5F9F73928F90E0B1
:1001B00008958FEF9FEF0895FC01918D828D981720
:1001C00031F0828DE80FF11D858D90E008958FEF5D
:1001D0009FEF0895FC01918D228D892F90E0805C26
:1001E0009F4F821B91098F73992708958AE291E0AE
:1001F0000E94EA0021E0892B09F420E0822F089573
:1002000080E090E0892B29F00E94F60081110C9487
:1002100000000895FC01A48DA80FB92FB11DA35AA9
:10022000BF4F2C91848D90E001968F739927848F16
:10023000A689B7892C93A089B1898C918370806439
:100240008C93938D848D981306C00288F389E02DDA
:1002500080818F7D80830895EF92FF920F931F938B
:10026000CF93DF93EC0181E0888F9B8D8C8D981369
:100270001AC0E889F989808185FF15C09FB7F89475
:10028000EE89FF896083E889F989808183708064C1
:1002900080839FBF81E090E0DF91CF911F910F910C
:1002A000FF90EF900895F62E0B8D10E00F5F1F4F1B
:1002B0000F731127E02E8C8D8E110CC00FB607FC2A
:1002C000FACFE889F989808185FFF5CFCE010E94B8
:1002D0000A01F1CFEB8DEC0FFD2FF11DE35AFF4F1B
:1002E000F0829FB7F8940B8FEA89FB898081806246
:1002F000CFCFCF93DF93EC01888D8823B9F0AA8903
:10030000BB89E889F9898C9185FD03C0808186FDD0
:100310000DC00FB607FCF7CF8C9185FFF2CF80811F
:1003200085FFEDCFCE010E940A01E9CFDF91CF9189
:100330000895833081F028F4813099F08230A9F05B
:1003400008958730A9F08830C9F08430B1F48091E5
:1003500080008F7D03C0809180008F778093800024
:10036000089584B58F7784BD089584B58F7DFBCFC4
:100370008091B0008F778093B00008958091B00095
:100380008F7DF9CFCF93DF93282F30E0F901E2552D
:10039000FF4F8491F901E656FF4FD491F901EA57D6
:1003A000FF4FC491CC23A1F081110E949901EC2F41
:1003B000F0E0EE0FFF1FE458FF4FA591B491EC91D0
:1003C000ED2381E090E009F480E0DF91CF91089582
:1003D00080E090E0FACF1F93CF93DF93282F30E097
:1003E000F901E255FF4F8491F901E656FF4FD49190
:1003F000F901EA57FF4FC491CC23A9F0162F8111C0
:100400000E949901EC2FF0E0EE0FFF1FEE58FF4F16
:10041000A591B4918FB7F894EC91111108C0D095C3
:10042000DE23DC938FBFDF91CF911F910895DE2BE8
:10043000F8CFCF93DF9390E0FC01E656FF4F249175
:100440008A579F4FFC0184918823D1F090E0880F58
:10045000991FFC01E859FF4FA591B491FC01EE589A
:10046000FF4FC591D491623071F49FB7F8943C91DD
:10047000822F809583238C93E8812E2B28839FBF26
:10048000DF91CF9108958FB7F894EC912E2B2C9398
:100490008FBFF6CF3FB7F894809115019091160168
:1004A000A0911701B091180126B5A89B05C02F3F58
:1004B00019F00196A11DB11D3FBFBA2FA92F982F8A
:1004C0008827BC01CD01620F711D811D911D42E085
:1004D000660F771F881F991F4A95D1F708958F924D
:1004E0009F92AF92BF92CF92DF92EF92FF924B0119
:1004F0005C010E944A026B017C010E944A026C1955
:100500007D098E099F09683E734081059105A8F316
:1005100021E0821A9108A108B10888EEC80E83E094
:10052000D81EE11CF11C81149104A104B10429F727
:10053000FF90EF90DF90CF90BF90AF909F908F9003
:1005400008951F920F920FB60F9211242F933F938D
:100550004F935F936F937F938F939F93AF93BF93CB
:10056000EF93FF938AE291E00E940A01FF91EF91DD
:10057000BF91AF919F918F917F916F915F914F91BB
:100580003F912F910F900FBE0F901F9018951F92C3
:100590000F920FB60F9211242F938F939F93EF9387
:1005A000FF93E0913A01F0913B018081E09140019D
:1005B000F091410182FD1BC09081809143018F5FCA
:1005C0008F7320914401821741F0E0914301F0E0E4
:1005D000E65DFE4F958F80934301FF91EF919F91D0
:1005E0008F912F910F900FBE0F901F9018958081C3
:1005F000F4CF1F920F920FB60F9211242F933F93B7
:100600008F939F93AF93BF9380911C0190911D0195
:10061000A0911E01B0911F013091140123E0230F1E
:100620002D3758F50196A11DB11D2093140180931B
:100630001C0190931D01A0931E01B0931F01809196
:10064000150190911601A0911701B0911801019622
:10065000A11DB11D8093150190931601A093170160
:10066000B0931801BF91AF919F918F913F912F91BE
:100670000F900FBE0F901F90189526E8230F02963B
:10068000A11DB11DD2CF789484B5826084BD84B59C
:10069000816084BD85B5826085BD85B5816085BD7D
:1006A00080916E00816080936E0010928100809135
:1006B00081008260809381008091810081608093BD
:1006C0008100809180008160809380008091B100E2
:1006D00084608093B1008091B00081608093B0000D
:1006E00080917A00846080937A0080917A008260A1
:1006F00080937A0080917A00816080937A00809163
:100700007A00806880937A001092C100E0913A01EB
:10071000F0913B0182E08083E0913601F091370156
:100720001082E0913801F09139018FEC80831092B2
:100730004201E0913E01F0913F0186E08083E0912B
:100740003C01F0913D01808180618083E0913C011A
:10075000F0913D01808188608083E0913C01F091BF
:100760003D01808180688083E0913C01F0913D01F2
:1007700080818F7D808361E089E00E94190261E0C1
:100780008AE00E94190261E082E00E94190261E0A1
:1007900083E00E94190261E084E00E94190261E096
:1007A00088E00E94190262E085E00E94190262E07E
:1007B00086E00E94190262E087E00E941902C1E00F
:1007C00000E010E0FF24F3948AE291E00E94EA0046
:1007D000181619067CF48AE291E00E94C8008C3455
:1007E00009F00DC1609119016C276093190189E02E
:1007F0000E94EB0185E00E94C201892B21F060E09C
:1008000082E00E94EB0186E00E94C201892B21F068
:1008100060E083E00E94EB0187E00E94C201892B27
:1008200031F060E084E00E94EB01F09200018091E1
:10083000260190912701A0912801B0912901805EA5
:100840009C4FAF4FBF4F2FB7F89440911C01509170
:100850001D0160911E0170911F012FBF8417950724
:10086000A607B70700F585E00E94C201892BD9F4DD
:1008700060911B016C2760931B0182E00E94EB01D9
:100880002FB7F89480911C0190911D01A0911E0139
:10089000B0911F012FBF8093260190932701A09351
:1008A0002801B09329018091220190912301A09108
:1008B0002401B091250187549F4FAF4FBF4F2FB7F1
:1008C000F89440911C0150911D0160911E0170919E
:1008D0001F012FBF84179507A607B70700F586E00D
:1008E0000E94C201892BD9F4609120016C2760938A
:1008F000200183E00E94EB012FB7F89480911C0146
:1009000090911D01A0911E01B0911F012FBF8093F6
:10091000220190932301A0932401B093250180919B
:100920000001882309F45FC087E00E94C201892B7F
:1009300009F059C061E084E00E94EB0160E083E0CF
:100940000E94EB0160E082E00E94EB0168E873E145
:1009500080E090E00E946F0287E00E94C201892B34
:1009600009F041C0D0912101DC27D093210160E042
:1009700084E00E94EB0168EC70E080E090E00E946F
:100980006F0261E084E00E94EB0168EC70E080E0BF
:1009900090E00E946F0260E084E00E94EB0168EC4E
:1009A00070E080E090E00E946F0261E084E00E94CD
:1009B000EB0168EC70E080E090E00E946F0260E084
:1009C00084E00E94EB0168EC70E080E090E00E941F
:1009D0006F0261E084E00E94EB016D2F88E00E94CD
:1009E000EB01109200010115110509F4EDCE0E94F2
:1009F000F600882309F4E8CE0E940000E5CE60915D
:100A00001A016C2760931A018AE0F2CEEAE2F1E063
:100A10001382128288EE93E0A0E0B0E08483958395
:100A2000A683B78385E091E09183808385EC90E095
:100A30009587848784EC90E09787868780EC90E0A8
:100A4000918B808B81EC90E0938B828B82EC90E099
:100A5000958B848B86EC90E0978B868B118E128E13
:100A6000138E148E0895EE0FFF1F0590F491E02D64
:060A70000994F894FFCF89
:100A760001000000002C018C00B9007901EA00C8D1
:040A860000DC000090
:107E0000112484B714BE81FFF0D085E080938100F7
:107E100082E08093C00088E18093C10086E0809377
:107E2000C20080E18093C4008EE0C9D0259A86E02C
:107E300020E33CEF91E0309385002093840096BBD3
:107E4000B09BFECF1D9AA8958150A9F7CC24DD24C4
:107E500088248394B5E0AB2EA1E19A2EF3E0BF2EE7
:107E6000A2D0813461F49FD0082FAFD0023811F036
:107E7000013811F484E001C083E08DD089C08234E0
:107E800011F484E103C0853419F485E0A6D080C0E4
:107E9000853579F488D0E82EFF2485D0082F10E0AE
:107EA000102F00270E291F29000F111F8ED06801E7
:107EB0006FC0863521F484E090D080E0DECF843638
:107EC00009F040C070D06FD0082F6DD080E0C81688
:107ED00080E7D80618F4F601B7BEE895C0E0D1E017
:107EE00062D089930C17E1F7F0E0CF16F0E7DF06D8
:107EF00018F0F601B7BEE89568D007B600FCFDCFD4
:107F0000A601A0E0B1E02C9130E011968C91119780
:107F100090E0982F8827822B932B1296FA010C0160
:107F200087BEE89511244E5F5F4FF1E0A038BF0790
:107F300051F7F601A7BEE89507B600FCFDCF97BE46
:107F4000E89526C08437B1F42ED02DD0F82E2BD052
:107F50003CD0F601EF2C8F010F5F1F4F84911BD097
:107F6000EA94F801C1F70894C11CD11CFA94CF0C13
:107F7000D11C0EC0853739F428D08EE10CD085E9AC
:107F80000AD08FE07ACF813511F488E018D01DD067
:107F900080E101D065CF982F8091C00085FFFCCF94
:107FA0009093C60008958091C00087FFFCCF809118
:107FB000C00084FD01C0A8958091C6000895E0E648
:107FC000F0E098E1908380830895EDDF803219F02E
:107FD00088E0F5DFFFCF84E1DECF1F93182FE3DFCA
:107FE0001150E9F7F2DF1F91089580E0E8DFEE27F6
:047FF000FF270994CA
:027FFE00040479
:0400000300007E007B
:00000001FF
